{
  "_format": "hh-sol-artifact-1",
  "contractName": "SurveyChain",
  "sourceName": "contracts/SurveyChain.sol",
  "abi": [
    {
      "inputs": [
        {
          "internalType": "string",
          "name": "_title",
          "type": "string"
        },
        {
          "internalType": "string[]",
          "name": "optionList",
          "type": "string[]"
        },
        {
          "internalType": "uint256",
          "name": "durationSeconds",
          "type": "uint256"
        }
      ],
      "stateMutability": "nonpayable",
      "type": "constructor"
    },
    {
      "inputs": [],
      "name": "AlreadyAuthorized",
      "type": "error"
    },
    {
      "inputs": [],
      "name": "AlreadyFinalized",
      "type": "error"
    },
    {
      "inputs": [],
      "name": "AlreadyVoted",
      "type": "error"
    },
    {
      "inputs": [],
      "name": "InvalidDuration",
      "type": "error"
    },
    {
      "inputs": [],
      "name": "InvalidOption",
      "type": "error"
    },
    {
      "inputs": [],
      "name": "InvalidOptionsLength",
      "type": "error"
    },
    {
      "inputs": [],
      "name": "InvalidViewer",
      "type": "error"
    },
    {
      "inputs": [],
      "name": "NotAdmin",
      "type": "error"
    },
    {
      "inputs": [],
      "name": "NotAuthorized",
      "type": "error"
    },
    {
      "inputs": [],
      "name": "NotFinalized",
      "type": "error"
    },
    {
      "inputs": [],
      "name": "NotQueued",
      "type": "error"
    },
    {
      "inputs": [],
      "name": "ResultsLocked",
      "type": "error"
    },
    {
      "inputs": [],
      "name": "VotingClosed",
      "type": "error"
    },
    {
      "inputs": [],
      "name": "VotingNotStarted",
      "type": "error"
    },
    {
      "anonymous": false,
      "inputs": [],
      "name": "Finalized",
      "type": "event"
    },
    {
      "anonymous": false,
      "inputs": [
        {
          "indexed": true,
          "internalType": "address",
          "name": "viewer",
          "type": "address"
        }
      ],
      "name": "ViewerGranted",
      "type": "event"
    },
    {
      "anonymous": false,
      "inputs": [
        {
          "indexed": true,
          "internalType": "address",
          "name": "viewer",
          "type": "address"
        }
      ],
      "name": "ViewerQueued",
      "type": "event"
    },
    {
      "anonymous": false,
      "inputs": [
        {
          "indexed": true,
          "internalType": "address",
          "name": "viewer",
          "type": "address"
        }
      ],
      "name": "ViewerRemoved",
      "type": "event"
    },
    {
      "anonymous": false,
      "inputs": [
        {
          "indexed": true,
          "internalType": "address",
          "name": "voter",
          "type": "address"
        },
        {
          "indexed": true,
          "internalType": "uint256",
          "name": "optionId",
          "type": "uint256"
        }
      ],
      "name": "VoteCast",
      "type": "event"
    },
    {
      "anonymous": false,
      "inputs": [
        {
          "indexed": false,
          "internalType": "uint256",
          "name": "newEndTime",
          "type": "uint256"
        }
      ],
      "name": "VotingExtended",
      "type": "event"
    },
    {
      "inputs": [],
      "name": "MAX_DURATION",
      "outputs": [
        {
          "internalType": "uint256",
          "name": "",
          "type": "uint256"
        }
      ],
      "stateMutability": "view",
      "type": "function"
    },
    {
      "inputs": [],
      "name": "MIN_DURATION",
      "outputs": [
        {
          "internalType": "uint256",
          "name": "",
          "type": "uint256"
        }
      ],
      "stateMutability": "view",
      "type": "function"
    },
    {
      "inputs": [],
      "name": "admin",
      "outputs": [
        {
          "internalType": "address",
          "name": "",
          "type": "address"
        }
      ],
      "stateMutability": "view",
      "type": "function"
    },
    {
      "inputs": [
        {
          "internalType": "address",
          "name": "",
          "type": "address"
        }
      ],
      "name": "canViewResults",
      "outputs": [
        {
          "internalType": "bool",
          "name": "",
          "type": "bool"
        }
      ],
      "stateMutability": "view",
      "type": "function"
    },
    {
      "inputs": [
        {
          "internalType": "uint256",
          "name": "newEndTime",
          "type": "uint256"
        }
      ],
      "name": "extendVoting",
      "outputs": [],
      "stateMutability": "nonpayable",
      "type": "function"
    },
    {
      "inputs": [],
      "name": "finalize",
      "outputs": [],
      "stateMutability": "nonpayable",
      "type": "function"
    },
    {
      "inputs": [],
      "name": "finalized",
      "outputs": [
        {
          "internalType": "bool",
          "name": "",
          "type": "bool"
        }
      ],
      "stateMutability": "view",
      "type": "function"
    },
    {
      "inputs": [],
      "name": "getOptions",
      "outputs": [
        {
          "internalType": "string[]",
          "name": "",
          "type": "string[]"
        }
      ],
      "stateMutability": "view",
      "type": "function"
    },
    {
      "inputs": [],
      "name": "getQueuedViewers",
      "outputs": [
        {
          "internalType": "address[]",
          "name": "",
          "type": "address[]"
        }
      ],
      "stateMutability": "view",
      "type": "function"
    },
    {
      "inputs": [],
      "name": "getSurveyInfo",
      "outputs": [
        {
          "internalType": "string",
          "name": "surveyTitle",
          "type": "string"
        },
        {
          "internalType": "uint256",
          "name": "startTime",
          "type": "uint256"
        },
        {
          "internalType": "uint256",
          "name": "endTime",
          "type": "uint256"
        },
        {
          "internalType": "bool",
          "name": "isFinalized",
          "type": "bool"
        },
        {
          "internalType": "uint256",
          "name": "optionsCount",
          "type": "uint256"
        }
      ],
      "stateMutability": "view",
      "type": "function"
    },
    {
      "inputs": [
        {
          "internalType": "uint256",
          "name": "optionId",
          "type": "uint256"
        }
      ],
      "name": "getTally",
      "outputs": [
        {
          "internalType": "euint64",
          "name": "",
          "type": "bytes32"
        }
      ],
      "stateMutability": "view",
      "type": "function"
    },
    {
      "inputs": [
        {
          "internalType": "address",
          "name": "viewer",
          "type": "address"
        }
      ],
      "name": "grantView",
      "outputs": [],
      "stateMutability": "nonpayable",
      "type": "function"
    },
    {
      "inputs": [
        {
          "internalType": "address[]",
          "name": "viewers",
          "type": "address[]"
        }
      ],
      "name": "grantViewMany",
      "outputs": [],
      "stateMutability": "nonpayable",
      "type": "function"
    },
    {
      "inputs": [
        {
          "internalType": "address",
          "name": "voter",
          "type": "address"
        }
      ],
      "name": "hasVoted",
      "outputs": [
        {
          "internalType": "bool",
          "name": "",
          "type": "bool"
        }
      ],
      "stateMutability": "view",
      "type": "function"
    },
    {
      "inputs": [
        {
          "internalType": "address",
          "name": "viewer",
          "type": "address"
        }
      ],
      "name": "isQueued",
      "outputs": [
        {
          "internalType": "bool",
          "name": "",
          "type": "bool"
        }
      ],
      "stateMutability": "view",
      "type": "function"
    },
    {
      "inputs": [],
      "name": "protocolId",
      "outputs": [
        {
          "internalType": "uint256",
          "name": "",
          "type": "uint256"
        }
      ],
      "stateMutability": "pure",
      "type": "function"
    },
    {
      "inputs": [
        {
          "internalType": "address",
          "name": "viewer",
          "type": "address"
        }
      ],
      "name": "queueViewer",
      "outputs": [],
      "stateMutability": "nonpayable",
      "type": "function"
    },
    {
      "inputs": [
        {
          "internalType": "address[]",
          "name": "viewers",
          "type": "address[]"
        }
      ],
      "name": "queueViewers",
      "outputs": [],
      "stateMutability": "nonpayable",
      "type": "function"
    },
    {
      "inputs": [
        {
          "internalType": "address",
          "name": "viewer",
          "type": "address"
        }
      ],
      "name": "removeQueuedViewer",
      "outputs": [],
      "stateMutability": "nonpayable",
      "type": "function"
    },
    {
      "inputs": [],
      "name": "title",
      "outputs": [
        {
          "internalType": "string",
          "name": "",
          "type": "string"
        }
      ],
      "stateMutability": "view",
      "type": "function"
    },
    {
      "inputs": [
        {
          "internalType": "uint256",
          "name": "optionId",
          "type": "uint256"
        },
        {
          "internalType": "externalEuint64",
          "name": "encryptedOne",
          "type": "bytes32"
        },
        {
          "internalType": "bytes",
          "name": "proof",
          "type": "bytes"
        }
      ],
      "name": "vote",
      "outputs": [],
      "stateMutability": "nonpayable",
      "type": "function"
    },
    {
      "inputs": [],
      "name": "votingEnd",
      "outputs": [
        {
          "internalType": "uint256",
          "name": "",
          "type": "uint256"
        }
      ],
      "stateMutability": "view",
      "type": "function"
    },
    {
      "inputs": [],
      "name": "votingStart",
      "outputs": [
        {
          "internalType": "uint256",
          "name": "",
          "type": "uint256"
        }
      ],
      "stateMutability": "view",
      "type": "function"
    }
  ],
  "bytecode": "0x608060405234801562000010575f80fd5b506040516200206838038062002068833981016040819052620000339162000577565b620000d9620000d3604080516080810182525f808252602082018190529181018290526060810191909152506040805160808101825273687820221192c5b662b25367f70076a37bc79b6c815273848b0066793bcc60346da1f49049357399b8d595602082015273a02cda4ca3a71d7c46997716f4283aa851c2881291810191909152731364cbbf2cdf5032c47d8226a6f6fbd2afcdacac606082015290565b620001ea565b600282511080620000eb575060208251115b156200010a5760405163115a886f60e31b815260040160405180910390fd5b610e108110806200011d575062278d0081115b156200013c57604051637616640160e01b815260040160405180910390fd5b5f80546001600160a01b0319163317905560016200015b8482620006f8565b504260028190556200016f908290620007c4565b600355815162000187906007906020850190620003ea565b50335f908152600860205260408120805460ff191660011790555b8251811015620001e0575f620001b881620002a5565b5f8381526005602052604090208190559050620001d581620002c2565b5050600101620001a2565b505050506200082d565b80515f805160206200204883398151915280546001600160a01b03199081166001600160a01b039384161790915560208301515f80516020620020288339815191528054831691841691909117905560408301517f9e7b61f58c47dc699ac88507c4f5bb9f121c03808c5676a8078fe583e46497028054831691841691909117905560608301517f9e7b61f58c47dc699ac88507c4f5bb9f121c03808c5676a8078fe583e46497038054909216921691909117905550565b50565b5f620002bc6001600160401b0383166005620002d3565b92915050565b5f620002cf823062000371565b5090565b5f805160206200202883398151915254604051639cd07acb60e01b81525f915f8051602062002048833981519152916001600160a01b0390911690639cd07acb90620003269087908790600401620007e4565b6020604051808303815f875af115801562000343573d5f803e3d5ffd5b505050506040513d601f19601f8201168201806040525081019062000369919062000815565b949350505050565b5f5f80516020620020488339815191528054604051635ca4b5b160e11b8152600481018690526001600160a01b03858116602483015292935091169063b9496b62906044015f604051808303815f87803b158015620003ce575f80fd5b505af1158015620003e1573d5f803e3d5ffd5b50505050505050565b828054828255905f5260205f2090810192821562000433579160200282015b82811115620004335782518290620004229082620006f8565b509160200191906001019062000409565b50620002cf9291505b80821115620002cf575f6200045282826200045c565b506001016200043c565b5080546200046a906200066e565b5f825580601f106200047a575050565b601f0160209004905f5260205f2090810190620002a291905b80821115620002cf575f815560010162000493565b634e487b7160e01b5f52604160045260245ffd5b604051601f8201601f191681016001600160401b0381118282101715620004e757620004e7620004a8565b604052919050565b5f82601f830112620004ff575f80fd5b81516001600160401b038111156200051b576200051b620004a8565b602062000531601f8301601f19168201620004bc565b828152858284870101111562000545575f80fd5b5f5b838110156200056457858101830151828201840152820162000547565b505f928101909101919091529392505050565b5f805f606084860312156200058a575f80fd5b83516001600160401b0380821115620005a1575f80fd5b620005af87838801620004ef565b9450602091508186015181811115620005c6575f80fd5b8601601f81018813620005d7575f80fd5b805182811115620005ec57620005ec620004a8565b8060051b620005fd858201620004bc565b918252828101850191858101908b84111562000617575f80fd5b86850192505b83831015620006565782518681111562000635575f80fd5b620006458d8983890101620004ef565b83525091860191908601906200061d565b80985050505050505050604084015190509250925092565b600181811c908216806200068357607f821691505b602082108103620006a257634e487b7160e01b5f52602260045260245ffd5b50919050565b601f821115620006f357805f5260205f20601f840160051c81016020851015620006cf5750805b601f840160051c820191505b81811015620006f0575f8155600101620006db565b50505b505050565b81516001600160401b03811115620007145762000714620004a8565b6200072c816200072584546200066e565b84620006a8565b602080601f83116001811462000762575f84156200074a5750858301515b5f19600386901b1c1916600185901b178555620007bc565b5f85815260208120601f198616915b82811015620007925788860151825594840194600190910190840162000771565b5085821015620007b057878501515f19600388901b60f8161c191681555b505060018460011b0185555b505050505050565b80820180821115620002bc57634e487b7160e01b5f52601160045260245ffd5b82815260408101605483106200080857634e487b7160e01b5f52602160045260245ffd5b8260208301529392505050565b5f6020828403121562000826575f80fd5b5051919050565b6117ed806200083b5f395ff3fe608060405234801561000f575f80fd5b5060043610610148575f3560e01c80639b79d331116100bf578063c994714b11610079578063c994714b146102c5578063cc2ee196146102d8578063da1f12ab146102ed578063eb0772c9146102f5578063f3e02cf714610308578063f851a4401461031b575f80fd5b80639b79d33114610266578063af60d56014610279578063b052d1c314610292578063b1724b46146102a5578063b3f05b97146102af578063b6a6d177146102bc575f80fd5b80634bb278f3116101105780634bb278f3146101e25780634f3e2843146101ea57806352471b80146102155780635eff1bb81461022857806385a386351461023b578063865796ba14610244575f80fd5b806309eef43e1461014c578063101158af1461018c5780632eed0c12146101a357806347769372146101b85780634a79d50c146101cd575b5f80fd5b61017761015a366004611414565b6001600160a01b03165f9081526006602052604090205460ff1690565b60405190151581526020015b60405180910390f35b61019560025481565b604051908152602001610183565b6101ab610345565b604051610183919061143a565b6101cb6101c6366004611486565b61048f565b005b6101d5610524565b6040516101839190611538565b6101cb6105b0565b6101776101f8366004611414565b6001600160a01b03165f9081526009602052604090205460ff1690565b6101cb610223366004611414565b610699565b6101cb61023636600461154a565b6106f5565b61019560035481565b610177610252366004611414565b60086020525f908152604090205460ff1681565b6101cb610274366004611414565b61084a565b610281610900565b6040516101839594939291906115c3565b6101cb6102a0366004611414565b6109be565b61019562278d0081565b6004546101779060ff1681565b610195610e1081565b6101cb6102d3366004611486565b610ab3565b6102e0610b94565b60405161018391906115f9565b612711610195565b61019561030336600461165b565b610cc3565b6101cb61031636600461165b565b610d4b565b5f5461032d906001600160a01b031681565b6040516001600160a01b039091168152602001610183565b600a546060905f805b828110156103ae5760095f600a838154811061036c5761036c611672565b5f9182526020808320909101546001600160a01b0316835282019290925260400190205460ff16156103a657816103a28161169a565b9250505b60010161034e565b505f8167ffffffffffffffff8111156103c9576103c96116b2565b6040519080825280602002602001820160405280156103f2578160200160208202803683370190505b5090505f805b84811015610485575f600a828154811061041457610414611672565b5f9182526020808320909101546001600160a01b0316808352600990915260409091205490915060ff161561047c578084848151811061045657610456611672565b6001600160a01b0390921660209283029190910190910152826104788161169a565b9350505b506001016103f8565b5090949350505050565b5f546001600160a01b031633146104b957604051637bfa4b9f60e01b815260040160405180910390fd5b60045460ff16156104dd5760405163475a253560e01b815260040160405180910390fd5b5f5b8181101561051f576105178383838181106104fc576104fc611672565b90506020020160208101906105119190611414565b5f610e27565b6001016104df565b505050565b60018054610531906116c6565b80601f016020809104026020016040519081016040528092919081815260200182805461055d906116c6565b80156105a85780601f1061057f576101008083540402835291602001916105a8565b820191905f5260205f20905b81548152906001019060200180831161058b57829003601f168201915b505050505081565b5f546001600160a01b031633146105da57604051637bfa4b9f60e01b815260040160405180910390fd5b60045460ff16156105fe5760405163475a253560e01b815260040160405180910390fd5b6003544210156106215760405163335b65a560e11b815260040160405180910390fd5b6004805460ff191660011790555f5b600754811015610666575f81815260056020526040812054905461065d91906001600160a01b0316610f5c565b50600101610630565b5061066f610f70565b6040517f6823b073d48d6e3a7d385eeb601452d680e74bb46afe3255a7d778f3a9b17681905f90a1565b5f546001600160a01b031633146106c357604051637bfa4b9f60e01b815260040160405180910390fd5b60045460ff16156106e75760405163475a253560e01b815260040160405180910390fd5b6106f2816001610e27565b50565b60025442101561071857604051633fd0090160e11b815260040160405180910390fd5b60035442111561073b5760405163335b65a560e11b815260040160405180910390fd5b335f9081526006602052604090205460ff161561076b57604051637c9a1cf960e01b815260040160405180910390fd5b600754841061078d57604051632a71953160e01b815260040160405180910390fd5b5f6107cd8484848080601f0160208091040260200160405190810160405280939291908181526020018383808284375f9201919091525061101c92505050565b5f868152600560205260409020549091506107e89082611030565b5f8681526005602052604090208190556108019061105e565b50335f81815260066020526040808220805460ff19166001179055518792917fa36cc2bebb74db33e9f88110a07ef56e1b31b24b4c4f51b54b1664266e29f45b91a35050505050565b5f546001600160a01b0316331461087457604051637bfa4b9f60e01b815260040160405180910390fd5b60045460ff1661089757604051630df706ad60e11b815260040160405180910390fd5b6001600160a01b0381166108be57604051633237b92760e21b815260040160405180910390fd5b6001600160a01b0381165f9081526008602052604090205460ff16156108f757604051633013e93f60e11b815260040160405180910390fd5b6106f28161106d565b60605f805f80600160025460035460045f9054906101000a900460ff1660078054905084805461092f906116c6565b80601f016020809104026020016040519081016040528092919081815260200182805461095b906116c6565b80156109a65780601f1061097d576101008083540402835291602001916109a6565b820191905f5260205f20905b81548152906001019060200180831161098957829003601f168201915b50505050509450945094509450945094509091929394565b5f546001600160a01b031633146109e857604051637bfa4b9f60e01b815260040160405180910390fd5b60045460ff1615610a0c5760405163475a253560e01b815260040160405180910390fd5b6001600160a01b038116610a3357604051633237b92760e21b815260040160405180910390fd5b6001600160a01b0381165f9081526009602052604090205460ff16610a6b5760405163ccbc0d7160e01b815260040160405180910390fd5b6001600160a01b0381165f81815260096020526040808220805460ff19169055517f9bef54c131a7d1db8da8d80942585e9ac4b3e3901d5fdf297a72d316d83fa62a9190a250565b5f546001600160a01b03163314610add57604051637bfa4b9f60e01b815260040160405180910390fd5b60045460ff16610b0057604051630df706ad60e11b815260040160405180910390fd5b5f5b8181101561051f575f838383818110610b1d57610b1d611672565b9050602002016020810190610b329190611414565b90506001600160a01b038116610b5b57604051633237b92760e21b815260040160405180910390fd5b6001600160a01b0381165f9081526008602052604090205460ff1615610b815750610b8c565b610b8a8161106d565b505b600101610b02565b6007546060905f9067ffffffffffffffff811115610bb457610bb46116b2565b604051908082528060200260200182016040528015610be757816020015b6060815260200190600190039081610bd25790505b5090505f5b600754811015610cbd5760078181548110610c0957610c09611672565b905f5260205f20018054610c1c906116c6565b80601f0160208091040260200160405190810160405280929190818152602001828054610c48906116c6565b8015610c935780601f10610c6a57610100808354040283529160200191610c93565b820191905f5260205f20905b815481529060010190602001808311610c7657829003601f168201915b5050505050828281518110610caa57610caa611672565b6020908102919091010152600101610bec565b50919050565b6007545f908210610ce757604051632a71953160e01b815260040160405180910390fd5b60045460ff16610d0a57604051635f5cc97160e01b815260040160405180910390fd5b335f9081526008602052604090205460ff16610d395760405163ea8e4eb560e01b815260040160405180910390fd5b505f9081526005602052604090205490565b5f546001600160a01b03163314610d7557604051637bfa4b9f60e01b815260040160405180910390fd5b60045460ff1615610d995760405163475a253560e01b815260040160405180910390fd5b6003548111610dbb57604051637616640160e01b815260040160405180910390fd5b62278d00600254610dcc91906116f8565b811115610dec57604051637616640160e01b815260040160405180910390fd5b60038190556040518181527f74f2a28834ec9e0d307e8b68bbca8cc975c7e8549ca5d00072c88da3f120716c9060200160405180910390a150565b6001600160a01b038216610e4e57604051633237b92760e21b815260040160405180910390fd5b6001600160a01b0382165f9081526008602052604090205460ff1615610e91578015610e8d57604051633013e93f60e11b815260040160405180910390fd5b5050565b6001600160a01b0382165f9081526009602052604090205460ff1615610ed0578015610e8d57604051633013e93f60e11b815260040160405180910390fd5b6001600160a01b0382165f81815260096020526040808220805460ff19166001908117909155600a8054918201815583527fc65a7bb8d6351c1cf70c95a316cc6a92839c986682d98bc35f958f4883f9d2a80180546001600160a01b03191684179055517f696595792095dc07b195ac38c7f323fea5183cf1ccc84c683fafcc5d48c482279190a25050565b5f610f6783836110f2565b50815b92915050565b600a545f5b81811015611010575f600a8281548110610f9157610f91611672565b5f9182526020808320909101546001600160a01b0316808352600990915260409091205490915060ff16610fc55750611008565b6001600160a01b0381165f908152600960209081526040808320805460ff19169055600890915290205460ff1615610ffd5750611008565b6110068161106d565b505b600101610f75565b506106f2600a5f6113ea565b5f61102983836005611168565b9392505050565b5f826110425761103f5f611275565b92505b81611053576110505f611275565b91505b61102983835f61128b565b5f61106982306110f2565b5090565b6001600160a01b0381165f908152600860205260408120805460ff191660011790555b6007548110156110bb575f818152600560205260409020546110b29083610f5c565b50600101611090565b506040516001600160a01b038216907f92102db93ca55e80c62afac8d9935348abb3f876e967024773b20a5db23f1990905f90a250565b5f5f805160206117988339815191528054604051635ca4b5b160e11b8152600481018690526001600160a01b03858116602483015292935091169063b9496b62906044015f604051808303815f87803b15801561114d575f80fd5b505af115801561115f573d5f803e3d5ffd5b50505050505050565b7f9e7b61f58c47dc699ac88507c4f5bb9f121c03808c5676a8078fe583e46497015460405163196d0b9b60e01b81525f915f80516020611798833981519152916001600160a01b039091169063196d0b9b906111ce90889033908990899060040161172b565b6020604051808303815f875af11580156111ea573d5f803e3d5ffd5b505050506040513d601f19601f8201168201806040525081019061120e919061176c565b8154604051630f8e573b60e21b8152600481018390523360248201529193506001600160a01b031690633e395cec906044015f604051808303815f87803b158015611257575f80fd5b505af1158015611269573d5f803e3d5ffd5b50505050509392505050565b5f610f6a8267ffffffffffffffff166005611340565b5f80821561129e5750600160f81b6112a1565b505f5b5f5f80516020611798833981519152600181015460405163022f65e760e31b815260048101899052602481018890526001600160f81b0319851660448201529192506001600160a01b03169063117b2f38906064016020604051808303815f875af1158015611312573d5f803e3d5ffd5b505050506040513d601f19601f82011682018060405250810190611336919061176c565b9695505050505050565b7f9e7b61f58c47dc699ac88507c4f5bb9f121c03808c5676a8078fe583e464970154604051639cd07acb60e01b81525f915f80516020611798833981519152916001600160a01b0390911690639cd07acb906113a29087908790600401611783565b6020604051808303815f875af11580156113be573d5f803e3d5ffd5b505050506040513d601f19601f820116820180604052508101906113e2919061176c565b949350505050565b5080545f8255905f5260205f20908101906106f291905b80821115611069575f8155600101611401565b5f60208284031215611424575f80fd5b81356001600160a01b0381168114611029575f80fd5b602080825282518282018190525f9190848201906040850190845b8181101561147a5783516001600160a01b031683529284019291840191600101611455565b50909695505050505050565b5f8060208385031215611497575f80fd5b823567ffffffffffffffff808211156114ae575f80fd5b818501915085601f8301126114c1575f80fd5b8135818111156114cf575f80fd5b8660208260051b85010111156114e3575f80fd5b60209290920196919550909350505050565b5f81518084525f5b81811015611519576020818501810151868301820152016114fd565b505f602082860101526020601f19601f83011685010191505092915050565b602081525f61102960208301846114f5565b5f805f806060858703121561155d575f80fd5b8435935060208501359250604085013567ffffffffffffffff80821115611582575f80fd5b818701915087601f830112611595575f80fd5b8135818111156115a3575f80fd5b8860208285010111156115b4575f80fd5b95989497505060200194505050565b60a081525f6115d560a08301886114f5565b60208301969096525060408101939093529015156060830152608090910152919050565b5f60208083016020845280855180835260408601915060408160051b8701019250602087015f5b8281101561164e57603f1988860301845261163c8583516114f5565b94509285019290850190600101611620565b5092979650505050505050565b5f6020828403121561166b575f80fd5b5035919050565b634e487b7160e01b5f52603260045260245ffd5b634e487b7160e01b5f52601160045260245ffd5b5f600182016116ab576116ab611686565b5060010190565b634e487b7160e01b5f52604160045260245ffd5b600181811c908216806116da57607f821691505b602082108103610cbd57634e487b7160e01b5f52602260045260245ffd5b80820180821115610f6a57610f6a611686565b6054811061172757634e487b7160e01b5f52602160045260245ffd5b9052565b8481526001600160a01b03841660208201526080604082018190525f90611754908301856114f5565b9050611763606083018461170b565b95945050505050565b5f6020828403121561177c575f80fd5b5051919050565b82815260408101611029602083018461170b56fe9e7b61f58c47dc699ac88507c4f5bb9f121c03808c5676a8078fe583e4649700a26469706673582212208ab4dea6ac1416690217329cfaf6b0500cf69f834ca587a418bd3fd1fb32a77e64736f6c634300081800339e7b61f58c47dc699ac88507c4f5bb9f121c03808c5676a8078fe583e46497019e7b61f58c47dc699ac88507c4f5bb9f121c03808c5676a8078fe583e4649700",
  "linkReferences": {},
  "deployedLinkReferences": {}
}